:020000040800F2
:10000000000400209D010008A5010008A7010008C8
:10001000A9010008AB010008AD01000800000000C4
:10002000000000000000000000000000AF01000818
:10003000B101000800000000B3010008B50100088C
:10004000B7010008B7010008B7010008B7010008B0
:10005000B7010008B7010008B7010008B7010008A0
:10006000B7010008B7010008B7010008B701000890
:10007000B7010008B7010008B7010008B701000880
:10008000B7010008B7010008B7010008B701000870
:10009000B7010008B7010008B7010008B701000860
:1000A000B7010008B7010008B7010008B701000850
:1000B000B7010008B7010008B7010008B701000840
:1000C000B7010008B7010008B7010008B701000830
:1000D000B7010008B7010008B7010008B701000820
:1000E000B7010008B7010008B7010008B701000810
:1000F000B7010008B7010008B7010008B701000800
:10010000B7010008B7010008B7010008B7010008EF
:10011000B7010008B7010008B7010008B7010008DF
:10012000B7010008B7010008B7010008B7010008CF
:10013000B7010008B7010008B7010008B7010008BF
:10014000B7010008B7010008B7010008B7010008AF
:10015000B7010008B7010008B7010008B70100089F
:10016000B7010008B7010008B7010008B70100088F
:10017000B7010008B7010008B7010008B70100087F
:10018000B7010008B7010008DFF80CD000F018F83C
:1001900000480047A90200080004002006488047E4
:1001A00006480047FEE7FEE7FEE7FEE7FEE7FEE75C
:1001B000FEE7FEE7FEE7FEE7890200088901000886
:1001C000064C074D06E0E06840F0010394E80700A4
:1001D00098471034AC42F6D3FFF7DAFF4403000827
:1001E0005403000800BF0100A0F10100FBD17047DB
:1001F000F0B50A4600210023002400BF3DE00125A0
:1002000005FA01F3158805EA03049C4234D14F0036
:100210000326BE400568B543056095784E00B5409D
:100220000668354305604F000326BE40C568B543E8
:10023000C560D5784E00B540C6683543C560957831
:10024000012D02D09578022D16D14F000326BE4015
:100250008568B543856055794E00B540866835435D
:10026000856001268E404568B543456015798D400F
:10027000ADB246682E434660491C1029BFD3F0BD7D
:100280004183704701837047704702E008C8121F1E
:1002900008C1002AFAD170477047002001E001C16F
:1002A000121F002AFBD170471CB52348006840F09C
:1002B0001000214908604020ADF8000001208DF8B1
:1002C00002008DF8030000208DF804008DF8050071
:1002D00069461A48FFF78CFF2DE04FF480711748EC
:1002E000FFF7CEFF4FF400711448FFF7C9FF4FF43A
:1002F00080611248FFF7C4FF4FF400610F48FFF719
:10030000BFFF0F48FFF76EFF4FF480710B48FFF7F8
:10031000B9FF4FF400710948FFF7B4FF4FF4806153
:100320000648FFF7AFFF4FF400610448FFF7AAFF4C
:100330000348FFF757FFD0E7303802400010024073
:10034000FFFF0F005403000800000020000400001D
:040350009A02000805
:040000050800018965
:00000001FF
